{
  "contractName": "Wrestling",
  "abi": [
    {
      "constant": true,
      "inputs": [],
      "name": "playerAPlayed",
      "outputs": [
        {
          "name": "",
          "type": "bool"
        }
      ],
      "payable": false,
      "stateMutability": "view",
      "type": "function"
    },
    {
      "constant": true,
      "inputs": [],
      "name": "playerB",
      "outputs": [
        {
          "name": "",
          "type": "address"
        }
      ],
      "payable": false,
      "stateMutability": "view",
      "type": "function"
    },
    {
      "constant": true,
      "inputs": [],
      "name": "theWinner",
      "outputs": [
        {
          "name": "",
          "type": "address"
        }
      ],
      "payable": false,
      "stateMutability": "view",
      "type": "function"
    },
    {
      "constant": true,
      "inputs": [],
      "name": "playerA",
      "outputs": [
        {
          "name": "",
          "type": "address"
        }
      ],
      "payable": false,
      "stateMutability": "view",
      "type": "function"
    },
    {
      "constant": true,
      "inputs": [],
      "name": "gameOver",
      "outputs": [
        {
          "name": "",
          "type": "bool"
        }
      ],
      "payable": false,
      "stateMutability": "view",
      "type": "function"
    },
    {
      "constant": true,
      "inputs": [],
      "name": "prize",
      "outputs": [
        {
          "name": "",
          "type": "uint256"
        }
      ],
      "payable": false,
      "stateMutability": "view",
      "type": "function"
    },
    {
      "constant": true,
      "inputs": [],
      "name": "playerBPlayed",
      "outputs": [
        {
          "name": "",
          "type": "bool"
        }
      ],
      "payable": false,
      "stateMutability": "view",
      "type": "function"
    },
    {
      "inputs": [],
      "payable": false,
      "stateMutability": "nonpayable",
      "type": "constructor"
    },
    {
      "anonymous": false,
      "inputs": [
        {
          "indexed": false,
          "name": "playerA",
          "type": "address"
        },
        {
          "indexed": false,
          "name": "playerB",
          "type": "address"
        }
      ],
      "name": "WrestlingStartsEvent",
      "type": "event"
    },
    {
      "anonymous": false,
      "inputs": [
        {
          "indexed": false,
          "name": "playerADeposit",
          "type": "uint256"
        },
        {
          "indexed": false,
          "name": "playerBDeposit",
          "type": "uint256"
        }
      ],
      "name": "EndOfRoundEvent",
      "type": "event"
    },
    {
      "anonymous": false,
      "inputs": [
        {
          "indexed": false,
          "name": "winner",
          "type": "address"
        },
        {
          "indexed": false,
          "name": "prize",
          "type": "uint256"
        }
      ],
      "name": "WrestlingEndsEvent",
      "type": "event"
    },
    {
      "constant": false,
      "inputs": [],
      "name": "registerAnOpponent",
      "outputs": [],
      "payable": false,
      "stateMutability": "nonpayable",
      "type": "function"
    },
    {
      "constant": false,
      "inputs": [],
      "name": "wrestle",
      "outputs": [],
      "payable": true,
      "stateMutability": "payable",
      "type": "function"
    },
    {
      "constant": false,
      "inputs": [],
      "name": "withDraw",
      "outputs": [],
      "payable": false,
      "stateMutability": "nonpayable",
      "type": "function"
    }
  ],
  "bytecode": "0x608060405234801561001057600080fd5b50336000806101000a81548173ffffffffffffffffffffffffffffffffffffffff021916908373ffffffffffffffffffffffffffffffffffffffff160217905550610975806100606000396000f3006080604052600436106100a4576000357c0100000000000000000000000000000000000000000000000000000000900463ffffffff16806303cc5597146100a95780630eb93d66146100b35780630fdb1c10146100e257806311bb1537146100f95780631f3d30de146101505780639d24e48214610167578063a285c54a146101be578063bdb337d114610215578063e3ac5d2614610244578063eb1a7dd41461026f575b600080fd5b6100b161029e565b005b3480156100bf57600080fd5b506100c86104fe565b604051808215151515815260200191505060405180910390f35b3480156100ee57600080fd5b506100f7610511565b005b34801561010557600080fd5b5061010e6105de565b604051808273ffffffffffffffffffffffffffffffffffffffff1673ffffffffffffffffffffffffffffffffffffffff16815260200191505060405180910390f35b34801561015c57600080fd5b50610165610604565b005b34801561017357600080fd5b5061017c61077e565b604051808273ffffffffffffffffffffffffffffffffffffffff1673ffffffffffffffffffffffffffffffffffffffff16815260200191505060405180910390f35b3480156101ca57600080fd5b506101d36107a4565b604051808273ffffffffffffffffffffffffffffffffffffffff1673ffffffffffffffffffffffffffffffffffffffff16815260200191505060405180910390f35b34801561022157600080fd5b5061022a6107c9565b604051808215151515815260200191505060405180910390f35b34801561025057600080fd5b506102596107dc565b6040518082815260200191505060405180910390f35b34801561027b57600080fd5b506102846107e2565b604051808215151515815260200191505060405180910390f35b600460009054906101000a900460ff1615801561035f57506000809054906101000a900473ffffffffffffffffffffffffffffffffffffffff1673ffffffffffffffffffffffffffffffffffffffff163373ffffffffffffffffffffffffffffffffffffffff16148061035e5750600160009054906101000a900473ffffffffffffffffffffffffffffffffffffffff1673ffffffffffffffffffffffffffffffffffffffff163373ffffffffffffffffffffffffffffffffffffffff16145b5b151561036a57600080fd5b6000809054906101000a900473ffffffffffffffffffffffffffffffffffffffff1673ffffffffffffffffffffffffffffffffffffffff163373ffffffffffffffffffffffffffffffffffffffff16141561040557600160149054906101000a900460ff161515156103db57600080fd5b60018060146101000a81548160ff0219169083151502179055503460025401600281905550610447565b600160159054906101000a900460ff1615151561042157600080fd5b60018060156101000a81548160ff02191690831515021790555034600354016003819055505b600160149054906101000a900460ff16801561046f5750600160159054906101000a900460ff165b156104fc5760035460020260025411156104b2576104ad6000809054906101000a900473ffffffffffffffffffffffffffffffffffffffff166107f5565b6104fb565b60025460020260035411156104f1576104ec600160009054906101000a900473ffffffffffffffffffffffffffffffffffffffff166107f5565b6104fa565b6104f96108ce565b5b5b5b565b600160149054906101000a900460ff1681565b6000600460009054906101000a900460ff16801561057c5750600460019054906101000a900473ffffffffffffffffffffffffffffffffffffffff1673ffffffffffffffffffffffffffffffffffffffff163373ffffffffffffffffffffffffffffffffffffffff16145b151561058757600080fd5b600554905060006005819055503373ffffffffffffffffffffffffffffffffffffffff166108fc829081150290604051600060405180830381858888f193505050501580156105da573d6000803e3d6000fd5b5050565b600160009054906101000a900473ffffffffffffffffffffffffffffffffffffffff1681565b600073ffffffffffffffffffffffffffffffffffffffff16600160009054906101000a900473ffffffffffffffffffffffffffffffffffffffff1673ffffffffffffffffffffffffffffffffffffffff1614151561066157600080fd5b33600160006101000a81548173ffffffffffffffffffffffffffffffffffffffff021916908373ffffffffffffffffffffffffffffffffffffffff1602179055507fd4443f0433b17d5fcbda14745060c62f4fd645677efd560e394d49cc6b73b9e56000809054906101000a900473ffffffffffffffffffffffffffffffffffffffff16600160009054906101000a900473ffffffffffffffffffffffffffffffffffffffff16604051808373ffffffffffffffffffffffffffffffffffffffff1673ffffffffffffffffffffffffffffffffffffffff1681526020018273ffffffffffffffffffffffffffffffffffffffff1673ffffffffffffffffffffffffffffffffffffffff1681526020019250505060405180910390a1565b600460019054906101000a900473ffffffffffffffffffffffffffffffffffffffff1681565b6000809054906101000a900473ffffffffffffffffffffffffffffffffffffffff1681565b600460009054906101000a900460ff1681565b60055481565b600160159054906101000a900460ff1681565b6001600460006101000a81548160ff02191690831515021790555080600460016101000a81548173ffffffffffffffffffffffffffffffffffffffff021916908373ffffffffffffffffffffffffffffffffffffffff160217905550600354600254016005819055507f83950626ebb10a9c2cecf847107aeef25764dbc26d3c10e9c12bad959be6c43781600554604051808373ffffffffffffffffffffffffffffffffffffffff1673ffffffffffffffffffffffffffffffffffffffff1681526020018281526020019250505060405180910390a150565b6000600160146101000a81548160ff0219169083151502179055506000600160156101000a81548160ff0219169083151502179055507f4a06b026e39d5ecf4150ef1983227e240bcd23677c8d89479f9521c4e7bed63e600254600354604051808381526020018281526020019250505060405180910390a15600a165627a7a723058201402e82359c0547233c65219573efada7a6843e89b3f64b53c95966902f895eb0029",
  "source": "pragma solidity ^0.4.18;\n\ncontract Wrestling {\n  address public playerA;\n  address public playerB;\n\n  bool public playerAPlayed;\n  bool public playerBPlayed;\n\n  uint private playerADeposit;\n  uint private playerBDeposit;\n\n  bool public gameOver;\n  address public theWinner;\n  uint public prize;\n\n\n  event WrestlingStartsEvent(address playerA, address playerB);\n  event EndOfRoundEvent(uint playerADeposit, uint playerBDeposit);\n  event WrestlingEndsEvent(address winner, uint prize);\n\n  constructor() public {\n    playerA = msg.sender;\n  }\n\n  function registerAnOpponent() public {\n    require(playerB == address(0));\n    playerB = msg.sender;\n    emit WrestlingStartsEvent(playerA, playerB);\n  }\n\n  function wrestle() public payable {\n    require(!gameOver && (msg.sender == playerA || msg.sender == playerB));\n\n    if (msg.sender == playerA) {\n      require(!playerAPlayed);\n      playerAPlayed = true;\n      playerADeposit = playerADeposit + msg.value;\n    } else {\n      require(!playerBPlayed);\n      playerBPlayed = true;\n      playerBDeposit = playerBDeposit + msg.value;\n    }\n\n    if (playerAPlayed && playerBPlayed) {\n      if (playerADeposit > 2 * playerBDeposit) {\n        endGame(playerA);\n      } else if (playerBDeposit > 2 * playerADeposit) {\n        endGame(playerB);\n      } else {\n        endRound();\n      }\n    }\n  }\n\n  function endGame(address winner) internal {\n    gameOver = true;\n    theWinner = winner;\n    prize = playerADeposit + playerBDeposit;\n    emit WrestlingEndsEvent(winner, prize);\n  }\n\n  function endRound() internal {\n    playerAPlayed = false;\n    playerBPlayed = false;\n    emit EndOfRoundEvent(playerADeposit, playerBDeposit);\n  }\n\n  function withDraw() public {\n    require(gameOver && msg.sender == theWinner);\n    uint amount = prize;\n    prize = 0;\n    msg.sender.transfer(amount);\n  }\n\n}\n",
  "sourcePath": "/Users/alant/Developer/sandbox/block_chain/simple-wrestling/contracts/Wrestling.sol",
  "compiler": {
    "name": "solc",
    "version": "0.4.23+commit.124ca40d.Emscripten.clang"
  },
  "schemaVersion": "2.0.0",
  "updatedAt": "2018-04-21T05:13:14.273Z"
}